:020000040800F2
:100000000010002065140008AD140008AD140008AD
:10001000AD140008AD140008AD1400080000000085
:10002000000000000000000000000000AD14000807
:10003000AD14000800000000AD140008AD14000865
:1000400000000000000000000000000000000000B0
:1000500000000000000000000000000000000000A0
:100060000000000000000000000000000000000090
:100070000000000000000000000000000000000080
:100080000000000000000000000000000000000070
:100090000000000000000000000000000000000060
:1000A0000000000000000000000000000000000050
:1000B0000000000000000000000000000000000040
:1000C0000000000000000000000000000000000030
:1000D0000000000000000000000000000000000020
:1000E0000000000000000000000000000000000010
:1000F0000000000000000000000000000000000000
:1001000000000000000000000000000000000000EF
:1001100000000000000000000000000000000000DF
:1001200000000000000000000000000000000000CF
:1001300000000000000000000000000000000000BF
:1001400000000000000000000000000000000000AF
:10015000000000000000000000000000000000009F
:10016000000000000000000000000000000000008F
:10017000000000000000000000000000000000007F
:08018000000000000000000077
:100188000448054B10B5834203D0044B002B00D024
:10019800984710BD04000020040000200000000063
:1001A80006480749091A8B10C90FC91810B5491014
:1001B80003D0044B002B00D0984710BD040000204A
:1001C800040000200000000010B5074C2378002B25
:1001D80009D1FFF7D5FF054B002B02D0044800E0FA
:1001E80000BF0123237010BD0400002000000000A0
:1001F800B0140008054B10B5002B03D0044905487E
:1002080000E000BFFFF7CCFF10BDC04600000000B3
:1002180008000020B014000802B4714649084900DB
:10022800095649008E4402BC7047C04602B4714664
:1002380049084900095C49008E4402BC7047C04621
:10024800002243088B4274D303098B425FD3030A0D
:100258008B4244D3030B8B4228D3030C8B420DD320
:10026800FF22090212BA030C8B4202D312120902AE
:1002780065D0030B8B4219D300E0090AC30B8B42EC
:1002880001D3CB03C01A5241830B8B4201D38B039A
:10029800C01A5241430B8B4201D34B03C01A52413F
:1002A800030B8B4201D30B03C01A5241C30A8B4282
:1002B80001D3CB02C01A5241830A8B4201D38B026D
:1002C800C01A5241430A8B4201D34B02C01A524111
:1002D800030A8B4201D30B02C01A5241CDD2C30983
:1002E8008B4201D3CB01C01A524183098B4201D3FF
:1002F8008B01C01A524143098B4201D34B01C01AEA
:10030800524103098B4201D30B01C01A5241C30861
:100318008B4201D3CB00C01A524183088B4201D3D0
:100328008B00C01A524143088B4201D34B00C01ABC
:100338005241411A00D20146524110467047FFE728
:1003480001B5002000F006F802BDC0460029F7D02C
:1003580076E770477047C04670B50C4D0C4E761B5B
:10036800B61005D0002408CD01349847A642FAD12A
:1003780001F09AF8074D084E761BB61005D00024F8
:1003880008CD01349847A642FAD170BD3C15000843
:100398003C1500083C15000840150008F0B5C64695
:1003A80000B50F2A41D903270D003E0005430C0074
:1003B80003002E402F423DD11500103D2D09A846BF
:1003C8002D01AC46844427681D001F6067685F6084
:1003D800A7689F60E7681034DF6010336545F2D185
:1003E80045460F230C2401352D01491913404519A1
:1003F800144222D08C59AC5104369C1B032CF9D8DA
:10040800043B9B0801339B00ED18C91803231A40CD
:10041800561E002A06D00023CC5C1A00EC54013387
:100428009642F9D180BCB846F0BD0500561E002A98
:10043800F1D1F7E70500561EEDE71A00F6E7C046CA
:100448008900920070B582184618346811689B00BC
:100458006418049934608D0045192968C0184C4007
:100468001021CC412C600168611801601368594063
:100478001423D94111603368C91831602B68594079
:100488001823D94129600368C918016013685940C5
:100498001923D941116070BDF0B514000D00B5B035
:1004A8000393474B01000493464B20220593464B88
:1004B80008A80693454B00260793FFF76FFF0C2209
:1004C800210011A81095FFF769FF3B9B9E4201DBB5
:1004D80035B0F0BD402204A924A8FFF75FFF0A2524
:1004E8000C2324AC0422002120000093043BFFF7D6
:1004F800A7FF0D220923012120000092083AFFF7E7
:100508009FFF0E210F270A230622200000910C3995
:10051800FFF796FF0B230722032120000097FFF720
:100528008FFF0A230522002120000097FFF788FF8C
:100538000C230622012120000093013BFFF780FFD6
:100548000D220823022120000092063AFFF778FFC7
:100558000E2109230091042220000B39013DFFF7E9
:100568006FFF002DBCD122002B0004A811681F5872
:100578000433C91902C2402BF8D114A90B006259DF
:100588000435100A1A705870100C120E9870DA7030
:100598000433402DF3D1109B300001331093330006
:1005A800891B3F30039CCA5CE45C62403A9CE2547D
:1005B8000133834202DC3B9A9A42F3D1403684E706
:1005C800657870616E642033322D62797465206BB2
:1005D800F0B50400AFB0012010293CD140262022FC
:1005E8001E4906A8FFF7DAFE237903AD2B7063795D
:1005F80062786B70A3791202AB70E3791849EB70DB
:10060800237A0EAF2B71637A1EA86B71A37AAB7134
:10061800E37AEB71237B2B72637B6B72A37BAB72E8
:10062800E37BEB7223781A43A378E4781B04134323
:1006380024061C433200FFF7B1FE2A0021001EAB3E
:1006480006A801960097FFF727FF72203A003100AD
:1006580000F08EF800202FB0F0BDC046C814000886
:10066800FB14000810B500F03DF900F067F900F040
:10067800A5F900F065F810217020034A00F05AF837
:1006880000F0C8F8FCE7C046D9050008012070470B
:1006980070B51400A31A984201DC00201FE04D78C1
:1006A8000B782E00303EF6B2092E0CD826701D00AD
:1006B800303DEEB2092E15D823782D011D43257043
:1006C80001340231E6E72E00413E052E02D8373DBF
:1006D8002570ECE72E00613E052E01D9012070BD82
:1006E800573DF5E71D00413D052D05D8373B2578D9
:1006F8001B012B432370E3E71D00613D052DEDD859
:10070800573BF4E7F0B5094F06003D6801200F2D6F
:100718000BDCFF2909D8064C280106552018416032
:1007280082600373002001353D60F0BD2000002089
:100738002400002010B50023FFF7E4FF10BD0000DF
:1007480010B50021074A7620FFF7F4FF0021064A7A
:100758007720FFF7EFFF00217920044AFFF7EAFF2F
:1007680010BDC04695060008CD070008B10700086F
:10077800F8B50D0014000F2700F078F96519AC42A0
:1007880003D10A2000F072F9F8BD2378054E1B0941
:10079800F05C00F06BF9237801343B40F05C00F02A
:1007A80065F9ECE7E814000807B56B46DA1D044B59
:1007B80072201B6801211370FFF7DAFF00200EBDBD
:1007C800200000200322114B944618680023F0B53E
:1007D8000F4C8DB0C6B2B34209DB614641436A464D
:1007E8007220C9B2FFF7C4FF00200DB0F0BD654606
:1007F80069465D431A01175DA2184F555768127B69
:100808006D4401336F70AA70DBB2E4E7200000206A
:1008180024000020F0B500252F4CA54400F00EF967
:100828002E4B2F491A68AA4245DC40D001272C4C90
:100838002D016619337B3B421AD000236A46137296
:1008480000F0FCF884226B4652009B18187000F0E8
:10085800F5F80A226B46FF329B18187002AA380076
:1008680042A9FFF715FF002821D16B461B7A736058
:10087800002663195B685B00B34222D800F0DEF8FB
:100888000A2801D00D2812D16419656802AA280027
:1008980042A9FFF7FDFE002809D1E9B2A36802A822
:1008A800984701AA107001217A20FFF761FFC3233E
:1008B8009B009D44F0BD2C010C5D8442B6D00135EF
:1008C800B1E700F0BBF80A28F1D00D28EFD042AB11
:1008D800F0540136CDE7C046F4FCFFFF20000020AD
:1008E80024000020F0B590270024012503260423C6
:1008F80097B0FF05380005A9059306950794089653
:1009080000F032FB102305A93800059306950794DB
:10091800089600F029FB05230AA80B930A960D9464
:10092800139400F0B9F80723210001A80193029558
:100938000394049400F08EFA17B0F0BD802270B5CD
:100948001B4C9202636988B013436361636990200A
:1009580013400193019BC023DB0001250326039369
:10096800022303A9C005049305950795069600F090
:10097800FBFA8022A369D2011343A361A3690D483E
:1009880013400293029B236BB3431D430A4B256319
:10099800036096231B02436000238360C3600361E6
:1009A80083610C33436100F04BFC08B070BDC04656
:1009B80000100240240100200038014080211E4B15
:1009C800F0B55A6989020A435A615B6987B00B40DE
:1009D80090240093012500260327009B8023E4052B
:1009E800200001A9019302950396049700F0BCFA30
:1009F8001023200001A9019302950396049700F0A3
:100A0800B3FA0423200001A90193029503960497E1
:100A180000F0AAFA32002000802100F059FB2A00D9
:100A28002000102100F054FB2A000421200000F0CF
:100A38004FFB07B0F0BDC0460010024037B5082490
:100A48006B46DD1D012232232900064800F02AFCEE
:100A5800002801D128783EBD034A136A2343136254
:100A6800EEE7C046240100200038014007B56B4678
:100A7800D91D087001220248024B00F089FC07BD0D
:100A88002401002088130000024B1868421C1A60D9
:100A98007047C04694010020F0B50368040085B093
:100AA800DB072FD423689B0700D581E023681B0749
:100AB80000D5BCE023685B0700D5DFE02368DB06D0
:100AC8001AD562690423B44D012A00D048E1696B44
:100AD80002270B436B636B6B1A436A63FFF7D4FF00
:100AE80006006B6B3B4200D133E1F8216A6BA369C6
:100AF8008A43DB0013436B63216A002900D057E166
:100B080000202AE00C22A44D6B681340042B06D069
:100B18006B681340082B0AD16B68DB0307D52B6879
:100B28009B03BFD56368002BBCD1012015E0636827
:100B3800012B14D180232A685B0213432B60FFF733
:100B4800A3FF80270600BF022B683B42AAD1FFF70C
:100B58009BFF801B6428F7D9032005B0F0BD002B4C
:100B680016D12B688D4A802713402B602B688C4A3E
:100B7800BF0213402B60FFF787FF06002B683B423C
:100B880000D18FE7FFF780FF801B6428F6D9E3E7E1
:100B9800052B05D180232A68DB0213432B60C9E7A4
:100BA8002B687E4A13402B602B687D4A1340C5E7AB
:100BB8000C22794D6B68134206D06B681340082BE2
:100BC80010D16B68DB030DD42B689B0702D5E36853
:100BD800012BAAD1F8212A6823698A43DB00134331
:100BE8002B6063E7E2680123002A0FD02A680227F6
:100BF80013432B60FFF748FF06002B683B42E9D1FF
:100C0800FFF742FF801B0228F7D9A5E72A680227C9
:100C18009A432A60FFF738FF06002B683B4200D151
:100C280044E7FFF731FF801B0228F6D994E7E26911
:100C38000123594D002A10D06A6A022713436B62B8
:100C4800FFF722FF06006B6A3B4200D032E7FFF74E
:100C58001BFF801B0228F6D97EE76A6A02279A439F
:100C68006A62FFF711FF06006B6A3B4200D121E779
:100C7800FFF70AFF801B0228F6D96DE780220021C2
:100C8800454D5205EB690091134208D1EB691343B6
:100C9800EB61EB6913400393039B012300938027C7
:100CA800404E7F0033683B4215D0A368012B22D108
:100CB8002A6A13432B62FFF7E7FE022706002B6A16
:100CC8003B423FD0009B012B00D0F7E6EB69364A48
:100CD8001340EB61F2E633683B433360FFF7D4FE21
:100CE800019033683B42E0D1FFF7CEFE019BC01A6A
:100CF8006428F6D930E70122002B14D12B6A022789
:100D080093432B622B6A033293432B62FFF7BCFE9B
:100D180006002B6A3B42D5D0FFF7B6FE234B801B5B
:100D28009842F6D918E7052B05D1296A013B0B43F0
:100D38002B622B6ABDE72B6A934304222B622B6A32
:100D48009343B7E7FFF7A0FE184B801B9842B6D92C
:100D580002E7FFF799FE801B022800D8C1E6FBE6F0
:100D6800053203D16A6B9A436A63BEE66A6B02274F
:100D7800134301226B636B6B93436B63FFF784FE32
:100D880006006B6B3B4200D1B6E6FFF77DFE801B89
:100D98000228F6D9E0E6C04600100240FFFFFEFF39
:100DA800FFFFFBFF00700040FFFFFFEF881300000C
:100DB8000C22254D6B681340082B00D1B5E62B6833
:100DC800224A13402B6002292FD1FFF75DFE8027AE
:100DD8000600BF042B683B4221D10F22EB6A802614
:100DE8009343E26AB6041343EB62616AA36A6A68D2
:100DF8000B4317490A4013436B6080232A685B043E
:100E080013432B60FFF740FE04002B68334200D0E9
:100E180076E6FFF739FE001B0228F6D99CE6FFF7B5
:100E280033FE801B0228D5D996E6FFF72DFE8026D3
:100E38000400B6042B68334200D161E6FFF724FEB4
:100E4800001B0228F6D987E600100240FFFFFFFECC
:100E5800FFFFC2FFF7B501223E4D04002B680F00CB
:100E680013408B4212D32268930719D4D2071FD498
:100E780001232A681A40BA425DD823685B0761D407
:100E8800E122354BD20300201A6008E02B68934317
:100E98000B432B602B6813408B42E4D00120FEBD2E
:100EA800F0202E494B688343A06803434B60DDE77D
:100EB8002A4E62683368012A1AD19B03EED50321B2
:100EC80073688B4313437360FFF7DEFD636801901B
:100ED800012B15D10C2273681340042BC8D0FFF7DF
:100EE800D3FD019BC01A1E4B9842F3D90320D6E7C5
:100EF800022A02D19B01E2D4D0E79B07DFD4CDE7D9
:100F0800022B12D00C2273681342B1D0FFF7BCFD3C
:100F1800019BC01A124B9842F4D9E7E7FFF7B4FDDA
:100F2800019BC01A0E4B9842E0D80C2273681340FC
:100F3800082BF3D19CE72A689A432A602A681A4248
:100F48009BD0ABE7054A074953680B40E1680B4360
:100F5800536095E700200240000000200010024086
:100F680088130000FFF8FFFF0023F0B587B00A6878
:100F78001400DC4001D107B0F0BD012614009E40EA
:100F880034400294324200D194E04A68150001923C
:100F9800102295430395022D0FD107240F251C40DD
:100FA800A400A540DA0892008218176AAF43BC462D
:100FB8000F69A74064462743176203225C00A240DA
:100FC800D543AC46032507689743019A2A40A240B7
:100FD800039D3A43013D0260012D0FD862468568A2
:100FE8001540CA68A2402A4382604568019AB54301
:100FF8000126120932409A402A4342606246C56877
:1010080015408A68A24080242A43C260019A640578
:1010180022424FD00125284A90279469FF052C4386
:10102800946192699C082A400592059A234AA40073
:10103800A4180F2202351D40AD00AA40A6689643A9
:101048000022B8420CD01E4F0132B84208D01D4FC2
:101058000132B84204D01C4F0332B84200D1023AE0
:10106800AA403243A260194A029C1668029D019F59
:10107800E4433543FF0301D4350025401560566825
:10108800029D019F3543BF0301D4350025405560BB
:101098009668029D019F3543FF0201D43500254023
:1010A8009560D568029E019F2E43BF0201D425405A
:1010B8002E00D66001335AE70010024000000140BC
:1010C8000004004800080048000C004800040140E3
:1010D800002A01D0816170478162FCE7F7B50400FE
:1010E8000E00170001932568EB6933409B1B5A4299
:1010F8005341BB4201D0002017E0089B0133F3D0D5
:10110800089B002B12D12B680C4A032013402B603C
:10111800AB68A332FF3293432200AB6020236932CD
:1011280013705370002368342370FEBDFFF7ACFCC6
:10113800019BC01A089B9842D5D9E4E75FFEFFFFE0
:10114800030070B59A681D6904682A435D69C1691E
:101158002A432068334D0A432840024322606268CC
:1011680031481D6A0240D868024362609A69A068E3
:101178002A432E4D2840024303208025A2602C4A92
:101188002D02126B0240013A022A06D9A9423CD12B
:101198005968E12348081B040FE02648805CA942EF
:1011A80020D108281BD8FFF737F8F31A051AF31AC5
:1011B8001A1A15005968204B4808C018FFF740F85C
:1011C80083B2002019000F221B0791435B0F0B43CA
:1011D800E36070BD5968802348085B02EDE7012091
:1011E8000023EFE708281AD8FFF720F80F19051988
:1011F8000F19191914005968104B4808C018FFF73F
:101208001FF880B2E0600020E3E75968E12348084E
:10121800DB03F3E75968802348081B02EEE7012047
:10122800D7E7C046F369FFFFFFCFFFFFFFF4FFFFDB
:1012380000100240F81400080048E8010024F400F7
:10124800F8B5041E01D10120F8BD060069363378CF
:10125800DAB2002B02D1030068331A702423012765
:101268003370256820002B68BB432B60FFF768FFAD
:10127800B842E8D06B680A4A0020134008226B6025
:10128800AB689343AB602B6822001F4320232F6079
:101298006A32E0666834337013702070D4E7C04651
:1012A800FFF7FFFFF0B585B0039303006A3316001C
:1012B8001A7804000D000220202A3BD101380029A9
:1012C80038D0002E36D08022A1685201914204D134
:1012D8002269002A01D105422CD1220068321178F6
:1012E8000220012926D0012111700022E266223253
:1012F8001A70FFF7C9FB23008021A26858331E80AB
:101308005E800290490104338A4217D12269002A7B
:1013180012D11E4A1A8080271E887F0122005A3265
:10132800138898B2002B10D1230020226A33683426
:101338001A70207005B0F0BDFF22EBE7002AEAD151
:101348002269002AF8D07F22E4E713882021013B94
:101358009BB21380039B002200932000029BFFF79F
:10136800BDFE002810D1A2682368BA4207D12269BD
:10137800002A04D19B8C33402B800235CEE79B8C0E
:1013880033402B700135C9E70320D3E7FF01000084
:10139800F0B5070085B0039369373B7804000D006A
:1013A80016000220202B46D10138002943D0002AFC
:1013B80041D08023A2685B019A4204D12369002BA3
:1013C80001D1014237D1230068331A780220012A5B
:1013D80031D001221A700023E36621333B70FFF7F6
:1013E80053FB230050331E805E80802602907601D6
:1013F800210052310B889AB2002B0DD1039B40215A
:1014080000932000029BFFF769FE002812D12023D9
:1014180068343B7020700EE00B880022013B9BB2C1
:101428000B80039B802100932000029BFFF756FE50
:10143800002802D0032005B0F0BDA3682268B3429B
:1014480008D12369002B05D12B880235DB05DB0D7C
:101458001385CDE72B7801351385C9E7002103E013
:101468000B4B5B58435004310A480B4B42189A42C5
:10147800F6D30A4A02E0002313600432084B9A426A
:10148800F9D300E000BFFEF767FFFFF7EBF8FEE7D0
:10149800441500080000002004000020040000207B
:1014A80098010020FEE70000F8B5C046F8BC08BC6B
:1014B8009E467047F8B5C046F8BC08BC9E467047C3
:1014C800000102030405060708090A0B0C0D0E0F9C
:1014D800101112131415161718191A1B1C1D1E1F8C
:1014E8003031323334353637383941424344454652
:1014F80004080248656C6C6F2066726F6D20436843
:10150800697077686973706572657265722C2049B5
:101518006D206F6E6C79206865726520746F206726
:10152800657420656E6372797074656420616E6499
:0415380020796F00A7
:04153C00FD010008A5
:04154000D1010008CD
:0415440000127A0017
:040000050800146576
:00000001FF
