:020000040800F2
:1000000000A000204D150008951500089515000862
:1000100095150008951500089515000800000000CA
:10002000000000000000000000000000951500081E
:1000300095150008000000009515000895150008AA
:1000400000000000000000000000000000000000B0
:1000500000000000000000000000000000000000A0
:100060000000000000000000000000000000000090
:100070000000000000000000000000000000000080
:100080000000000000000000000000000000000070
:100090000000000000000000000000000000000060
:1000A0000000000000000000000000000000000050
:1000B0000000000000000000000000000000000040
:1000C0000000000000000000000000000000000030
:1000D0000000000000000000000000000000000020
:1000E0000000000000000000000000000000000010
:1000F0000000000000000000000000000000000000
:1001000000000000000000000000000000000000EF
:1001100000000000000000000000000000000000DF
:1001200000000000000000000000000000000000CF
:1001300000000000000000000000000000000000BF
:1001400000000000000000000000000000000000AF
:10015000000000000000000000000000000000009F
:10016000000000000000000000000000000000008F
:10017000000000000000000000000000000000007F
:08018000000000000000000077
:100188000348044B834202D0034B03B1184770471E
:10019800000000200000002000000000054806497B
:1001A8000B1AD90F01EBA301491002D0034B03B17D
:1001B80018477047000000200000002000000000E1
:1001C80010B5064C237843B9FFF7DAFF044B13B197
:1001D8000448AFF300800123237010BD0000002005
:1001E800000000009815000808B5044B1BB104492D
:1001F8000448AFF30080BDE80840CFE700000000E6
:10020800040000209815000870B50D4E0D4D761BA2
:10021800B61006D0002455F8043B01349847A6428E
:10022800F9D1094E094D761B01F0B2F9B61006D086
:10023800002455F8043B01349847A642F9D170BD13
:10024800241600082416000828160008241600089A
:1002580070B550F8214050F82260049D344440F8AD
:10026800214050F8256074404FEA344440F8254056
:1002780050F82360344440F8234050F8226074401A
:100288004FEA345440F8224050F82160344440F892
:10029800214050F8251061404FEA316140F825109F
:1002A80050F82340214440F8231050F82230594098
:1002B8004FEA716140F8221070BD00002DE9F04F3F
:1002C8000E461D465849594BB3B0CDE90213584B59
:1002D8000493A3F16463A3F5E333A3F5DF733D9FB0
:1002E80005930DF1180C034600F1200E18685968A3
:1002F800644603C408337345A446F7D110685168AF
:100308000E960FAB03C3906818600024BC4202DB52
:1003180033B0BDE8F08F0DF1080CBCE80F0022AE39
:100328000FC6BCE80F000FC6BCE80F000FC69CE85C
:100338000F0086E80F000A264FF00C0A22A80823AF
:10034800042200214FF00D09CDF800A0FFF780FF2F
:100358004FF00E08092305220121CDF80090FFF780
:1003680077FF4FF00F0B0A2306220221CDF80080F9
:10037800FFF76EFF0B2307220321CDF800B0FFF72C
:1003880067FF0A2305220021CDF800B0FFF760FFC0
:100398000B2306220121CDF800A0FFF759FF0823FF
:1003A80007220221CDF80090FFF752FFCDF8008018
:1003B800092304220321FFF74BFF013EBCD102AE03
:1003C80002461023D2F800C056F8041B013B6144D2
:1003D80042F8041BF6D112AE324650F8041B1170D5
:1003E8004FEA112C013382F801C0102B4FEA114C4F
:1003F8004FEA116182F802C0D17002F10402ECD117
:100408000E9B01330E9304F13F0123468B4201DD1D
:1004180040347BE7BB42FBD0E85C16F8012B424036
:100428003C98C2540133F1E7657870616E642033FB
:10043800322D6279F0B51029AFB003464FD1294A61
:1004480006AC02F12007264610685168254603C508
:100458000832BA422C46F7D11A798DF80C205A790D
:100468008DF80D209A798DF80E20DA798DF80F2005
:100478001A7A8DF810205A7A8DF811209A7A8DF808
:100488001220DA7A8DF813201A7B8DF814205A7B03
:100498008DF815209A7B8DF81620DA7B8DF81720B9
:1004A800114A1F681EAC02F1400C234610685168BF
:1004B800254603C5083262452C46F7D140240EADC7
:1004C80003AA3946304601940095FFF7F7FE7220DB
:1004D8002A46214600F08CF800202FB0F0BD0120FC
:1004E800FBE700BFB0150008E315000808B500F0E9
:1004F8003DF900F07BF900F0B7F900F063F8044A21
:100508001021702000F05AF800F0CCF8FCE700BF8A
:100518003D04000801207047F0B500254F1C8542B6
:1005280001DB002021E017F8154011F81530A4F17F
:100538003006F6B2092E0CD81670A3F13004E6B2D4
:10054800092E15D8137843EA0413137001350132C4
:10055800E5E7A4F14106052E02D8373C1470ECE714
:10056800A4F16106052E01D90120F0BD573CF5E73D
:10057800A3F14104052C02D8A3F13704E2E7A3F163
:100588006104052CF0D81478573B44EA0313DCE7E0
:1005980070B5094E34680F2C0BDCFF2909D806EB1F
:1005A8000415C5E90212013428712B743460002047
:1005B80070BD0120FCE700BF1C0000200023FFF7EE
:1005C800E7BF000008B5074A00217620FFF7F6FFCD
:1005D800054A7720FFF7F2FFBDE80840034A792073
:1005E800FFF7ECBF1D0500085D0600083906000886
:1005F800F8B514460E4600F075F90C4F651EC4F1A7
:10060800010463199E4204DCBDE8F8400A2000F0AA
:1006180069B915F8013F1B09F85C00F063F92B78FC
:1006280003F00F03F85C00F05DF9EAE7D015000865
:1006380007B5074B0DF107021B688DF8073001213C
:100648007220FFF7D5FF002003B05DF804FB00BF60
:100658001C00002070B5124C21688CB0CDB200206F
:10066800C3B2AB4200F1010009DB01EB41016A466C
:10067800C9B27220FFF7BCFF00200CB070BD03EBBD
:100688004302303204EB03136A441E7902F8306CDB
:100698009E681B7C02F82F6C02F82E3CE0E700BF36
:1006A8001C0000202DE9F0412F4DADF5427D00F0F2
:1006B800FFF82A46002352F8041B994204DC07D1AC
:1006C8000DF5427DBDE8F0811C01A45C84423ED159
:1006D80005EB03141E01237CDB0714D500238DF8DA
:1006E800083000F0E5F88DF8080100F0E1F802AAFA
:1006F8008DF8090142A90120FFF70EFF0028DFD17C
:100708009DF80830A36042AF002405EB0608D8F82E
:100718000830B4EB430F1CD300F0CAF80A2801D004
:100728000D28CDD1354402AAAC6842A92046FFF76E
:10073800F3FE0028C4D1E1B2EB6802A8984701AAE9
:100748008DF8040001217A20FFF752FFB8E7013342
:10075800B3E700F0ADF80A28B2D00D28B0D007F8FA
:10076800010B0134D3E700BF1C00002070B596B020
:10077800002403264FF4A0230CA80125CDE90C631F
:100788001094149400F0C6F80F23214602A8CDE96E
:100798000235CDE90444069400F02AFB114B5A694E
:1007A80042F400225A615B69CDE9094603F400234B
:1007B8000D4C0193019B07A94FF4C0432046CDE996
:1007C800073500F0BBFB2A4620464FF4005100F0E5
:1007D80079FC2A464FF48041204600F073FC16B09D
:1007E80070BD00BF001002400008004810B54FF46B
:1007F800C06288B00223CDE9032301210323CDE998
:100808000513164C07230793636943F400336361A8
:10081800636903F40033019303A94FF09040019BEF
:1008280000F08CFB0E48DFF83CC04FF41643C0E9DB
:1008380000C30023C0E90233036183610C234361D1
:10084800A36943F48043A361A36903F4804302933B
:10085800029B00F08BFD08B010BD00BF00100240E5
:100868002001002000380140104B30B55A6942F48D
:1008780000325A615B6987B003F400330093009B30
:100888004FF480540123CDE901430025032301A936
:100898004FF09040CDE9035300F050FB2A46214623
:1008A8004FF0904000F00EFC07B030BD0010024041
:1008B80037B50A4D0A4C41F2883301220DF1070180
:1008C800284600F0D4FD18B99DF8070003B030BDE4
:1008D800236A43F008032362EDE700BF20010020EC
:1008E8000038014007B541F288338DF8070001222E
:1008F8000DF10701024800F064FD03B05DF804FB48
:1009080020010020024B1868421C1A60704700BF83
:100918009001002003682DE9F341D907044611D45A
:1009280023689A0700F1868023681E0700F1F48087
:1009380023685D0700F14081E269002A40F0CB811D
:10094800002021E09A494B6803F00C03042B07D0E0
:100958004B6803F00C03082B19D14B68DB0316D541
:100968004FF4003393FAA3F2096893FAA3F3B3FAA6
:1009780083F303F01F03012202FA03F30B42CFD0E3
:100988006368002BCCD1012002B0BDE8F081626819
:10099800B2F5803F24D10B6843F480330B60CB6AF7
:1009A800A06823F00F030343CB624AB3FFF7AAFF03
:1009B8004FF400360546012796FAA6F30A6896FA18
:1009C800A6F3B3FA83F303F01F0307FA03F3134202
:1009D800A6D1FFF797FF401B6428EDD90320D3E782
:1009E8000B6832B923F480330B600B6823F480233F
:1009F800D4E7B2F5A02FF5D143F480230B60CAE702
:100A0800FFF780FF4FF400360546012796FAA6F354
:100A18000A6896FAA6F3B3FA83F303F01F0307FAFA
:100A280003F313423FF47CAFFFF76CFF401B6428CD
:100A3800ECD9D3E75E494B6813F00C0F07D04B682D
:100A480003F00C03082B21D14B68DF031ED40223CB
:100A580093FAA3F2086893FAA3F3B3FA83F303F0C3
:100A68001F03012202FA03F3034202D023699342CF
:100A780089D10868F82393FAA3F3B3FA83F2636978
:100A8800934020F0F80213430B604DE722690125DB
:100A980002B395FAA5F3B3FA83F303F1845303F58C
:100AA80084139B0002271D60FFF72CFF064697FA68
:100AB800A7F30A6897FAA7F3B3FA83F303F01F03BF
:100AC80005FA03F31342D4D1FFF71CFF801B022859
:100AD800EDD983E795FAA5F3B3FA83F303F18453C9
:100AE80003F584139B0002271A60FFF70BFF0646E5
:100AF80097FAA7F30A6897FAA7F3B3FA83F303F010
:100B08001F0305FA03F313423FF40EAFFFF7FAFE93
:100B1800801B0228ECD961E7A269254D25480121EF
:100B280012B391FAA1F3B3FA83F303449B000226AC
:100B38001960FFF7E7FE074696FAA6F396FAA6F3BA
:100B480096FAA6F36A6A96FAA6F3B3FA83F303F061
:100B58001F0301FA03F313427FF4EAAEFFF7D2FE54
:100B6800C01B0228E8D939E791FAA1F3B3FA83F355
:100B780003449B0002261A60FFF7C4FE074696FA54
:100B8800A6F396FAA6F396FAA6F36A6A96FAA6F375
:100B9800B3FA83F303F01F0301FA03F313423FF49C
:100BA800C7AEFFF7AFFEC01B0228E8D916E700BFA3
:100BB80000100240208190108A49CB69D80033D4B4
:100BC800CB6943F08053CB61CB6903F08053019329
:100BD800019B0125844E3368DA0527D5E368012B8C
:100BE80034D10B6A43F001030B62FFF78BFE022638
:100BF80007464FF0010896FAA6F396FAA6F3002BDB
:100C080061D00A6A96FAA6F3B3FA83F303F01F03D6
:100C180008FA03F313424ED0002D3FF48DAECB6992
:100C280023F08053CB6187E60025D3E7336843F48C
:100C380080733360FFF766FE07463368DB05CDD463
:100C4800FFF760FEC01B6428F7D9C7E62BBB0B6A09
:100C580023F001030B620B6A23F004030B62FFF716
:100C680051FE022607464FF0010896FAA6F396FAB7
:100C7800A6F363B30A6A96FAA6F3B3FA83F303F00A
:100C88001F0308FA03F31342C6D0FFF73BFE41F2F5
:100C98008833C01B9842E8D9A0E6052B0B6A03D11C
:100CA80043F004030B629CE723F001030B620B6A19
:100CB80023F0040398E7FFF725FE41F28833C01BB1
:100CC800984298D98AE696FAA6F34A6A9AE796FA73
:100CD800A6F34A6ACFE743494B6803F00C03082B95
:100CE8003FF451AE022A4FF0807354D193FAA3F324
:100CF800B3FA83F303F1845303F584139B000022B2
:100D08001A60FFF7FFFDDFF8E48006464FF0007732
:100D1800012597FAA7F30A6897FAA7F3B3FA83F3BA
:100D280003F01F0305FA03F313422ED1D4E9080395
:100D38004A68034322F4741213434B604FF08073E4
:100D480093FAA3F3B3FA83F303F1845303F58413FB
:100D58009B00264F1D60FFF7D5FD4FF00075044638
:100D6800012695FAA5F30A6895FAA5F3B3FA83F371
:100D780003F01F0306FA03F313427FF4E1ADFFF714
:100D8800C1FD001BB842ECD928E6FFF7BBFD801B6C
:100D98004045BED922E693FAA3F3B3FA83F303F1ED
:100DA800845303F584139B0000221A60FFF7AAFD01
:100DB8000E4F04464FF00075012695FAA5F30A6810
:100DC80095FAA5F3B3FA83F303F01F0306FA03F3C6
:100DD80013423FF4B5ADFFF795FD001BB842ECD9BF
:100DE800FCE500BF0010024000700040400D030009
:100DF800504AF8B5136803F007038B4204461BD327
:100E08002268900724D4D2072AD44A4A136803F0E8
:100E180007038B427AD82068430700F1828010F0DC
:100E2800080014D0444A2169536823F4605343EA04
:100E3800C103536000200AE0136823F007030B4343
:100E48001360136803F007038B42D9D00120F8BD63
:100E58003948A568436823F0F0032B434360D2E781
:100E68006268354D012A27D14FF4003393FAA3F075
:100E7800286893FAA3F3B3FA83F303F01F0302FA83
:100E880003F30342E2D06B6823F003031A436A605A
:100E9800FFF738FD6368012B064641F288371ED1FB
:100EA8006B6803F00C03042BAFD0FFF72BFD801BFE
:100EB800B842F5D90320CAE7022A0CBF4FF00073E5
:100EC800022393FAA3F02E6893FAA3F3B3FA83F3F9
:100ED80003F01F03012000FA03F33342D2E7022B89
:100EE8000FD16B6803F00C03082B8ED0FFF70AFDB7
:100EF800801BB842F5D9DDE7FFF704FD801BB84237
:100F0800D8D86B6813F00C0FF6D17EE7136823F07E
:100F180007030B431360136803F007038B4295D153
:100F280079E70549E3684A6822F4E0621A434A60AF
:100F380075E700BF00200240001002402DE9F74F7E
:100F4800DFF874815D4C00234FF001090A6832FA1A
:100F580003F502D103B0BDE8F08F09FA03FA1AEAE3
:100F6800020200F09E804D6825F0100EBEF1020FBF
:100F780014D14FEAD30C00EB8C0C03F0070BDCF810
:100F880020604FEA8B0B0F2707FA0BF726EA0707B3
:100F98000E6906FA0BF63E43CCF82060D0F800B094
:100FA8004FEA430C032606FA0CF72BEA070BFE431D
:100FB80005F0030707FA0CF70EF1FF3E47EA0B07A7
:100FC800BEF1010F076011D8876806EA070ECF68DF
:100FD80007FA0CF747EA0E078760476827EA0A0A04
:100FE800C5F300179F4047EA0A074760C7683740BC
:100FF8008E6806FA0CF63E43C660EE0051D5D8F866
:10100800186046F00106C8F81860D8F8186023F090
:10101800030707F1804706F0010607F580370196B8
:1010280003F0030E019EBE684FEA8E0E4FF00F0CC0
:101038000CFA0EFCB0F1904F26EA0C0C33D0204E7F
:10104800B04232D006F58066B04230D006F58066F0
:10105800B0422ED006F58066B0420CBF04260526A5
:1010680006FA0EF646EA0C06BE602668D74315F463
:10107800803F0CBF3E4016432660666815F4003F6B
:101088000CBF3E4016436660A66815F4801F0CBF6F
:101098003E401643A660E668AD0254BF3E40164384
:1010A800E660013352E70026DAE70126D8E7022690
:1010B800D6E70326D4E700BF001002400004014031
:1010C800000400480AB181617047816270470000DE
:1010D80002688168C36930B50569146829434569A0
:1010E80024F41644294324F00C04194321431160C5
:1010F8005168C468056A21F44051214351609468DD
:10110800816924F4306429432143916062498A4209
:1011180016D101F55841096B01F003010139022983
:1011280000F2B2805D4CB3F5004F615C77D10829BD
:1011380072D8DFE801F0ACAC2471AC717171A40015
:1011480057498A422CD101F5E631096B01F4403147
:10115800B1F5003F00F090800BD8002900F0948092
:10116800B1F5803F00F09080B3F5004F54D00120D6
:1011780015E0B1F5403FF7D1B3F5004F66D14168AE
:101188004B0803F1F47303F59043B3FBF1F300202C
:101198009BB223F00F01C3F342030B43D36030BD6E
:1011A80040498A4210D101F5E431096B01F440212C
:1011B800B1F5002F60D004D8002965D0B1F5802F93
:1011C800D0E7B1F5402FD6E737498A4210D101F56B
:1011D800E231096B01F44011B1F5001F4CD004D87D
:1011E800002951D0B1F5801FBCE7B1F5401FC2E717
:1011F8002E498A42B8D101F5E031096B01F440016A
:10120800B1F5000F38D004D800293DD0B1F5800FD2
:10121800A8E7B1F5400FAEE701200023B9E7082998
:10122800A5D801A353F821F06D1200086D1200082B
:1012380055120008771100086D1200087711000890
:1012480077110008771100087712000841684B08E9
:1012580003F5740303F51053B3FBF1F39BB2D360AA
:1012680000209CE741684B0803F5E103F4E7416877
:101278004B0803F50043EFE7B3F5004FF7D141689A
:101288004B0803F5803380E7B3F5004FEAD1416896
:101298004B0803F5610378E700380140E0150008C2
:1012A8000044004000480040004C0040005000400E
:1012B800F8B5069F044615461E462268D36931EAEA
:1012C80003030CBF01230023AB4201D0002014E02C
:1012D8007B1CF3D097B923681A6822F4D0721A607D
:1012E8009A6822F001029A60202384F8693084F811
:1012F8006A30002384F868300320F8BDFFF702FB4A
:10130800801BB842D9D9E6E737B504460021C16643
:10131800FFF7F8FA23681B681A07054617D42368ED
:101328001B685B070AD56FF07E43009300222B46AB
:101338004FF480012046FFF7BBFFA0B9202300200F
:1013480084F8693084F8680084F86A300CE06FF03B
:101358007E4300930A4603464FF400112046FFF7E8
:10136800A7FF0028DBD0032003B030BD10B504462A
:1013780028B390F8693003F0FF020BB980F86820B1
:101388002268242384F86930136823F0010313606A
:101398002046FFF79DFE012811D023685A6822F4E1
:1013A80090425A609A6822F02A029A601A6842F0BB
:1013B800010220461A60BDE81040FFF7A5BF0120D2
:1013C80010BDF7B51E4690F86930202B0D4604462F
:1013D80011464AD1002D46D0002A44D090F86830F2
:1013E800012B42D0012380F868300023C3662123F3
:1013F80080F86930FFF786FAA4F850100746A4F879
:101408005210B4F8522092B262B900963B4640217D
:101418002046FFF74DFF98B9202384F8693084F8F7
:1014280068000EE0B4F852200096013A92B2A4F88F
:1014380052203B46002280212046FFF739FF10B199
:10144800032003B0F0BDA3682268B3F5805F07D11D
:1014580023692BB935F8023BC3F308031385D0E79A
:1014680015F8013BFAE70120EBE70220E9E72DE94F
:10147800F3411E4690F86A30202B0D46044611466B
:101488005CD1002D58D0002A56D090F86830012B36
:1014980054D0012380F8683003684FF0FF321A6295
:1014A8000023C366222380F86A30FFF72BFAA3686B
:1014B800A4F85810B3F5805F8046A4F85A1015D1E7
:1014C80023698BB940F2FF13A4F85C30B4F85C7060
:1014D800B4F85A0080B280B9202384F86A3084F8BE
:1014E800680002B0BDE8F081FF23EDE7002BEDD1E5
:1014F8002369002BF8D07F23E6E7B4F85A2000963A
:10150800013A92B2A4F85A204346002220212046EC
:10151800FFF7CEFEA0B9A2682368B2F5805F06D1B6
:10152800226922B99B8C3B4025F8023BD0E79B8C73
:101538003B4005F8013BCBE70120D2E70220D0E78A
:101548000320CEE7002103E00B4B5B5843500431E6
:101558000A480B4B42189A42F6D30A4A02E0002383
:1015680013600432084B9A42F9D3AFF30080FEF7B8
:101578004BFEFEF7BBFFFEE72C160008000000201C
:10158800000000200000002098010020FEE7000075
:10159800F8B500BFF8BC08BC9E467047F8B500BF58
:0815A800F8BC08BC9E46704728
:1015B000000102030405060708090A0B0C0D0E0FB3
:1015C000101112131415161718191A1B1C1D1E1FA3
:1015D0003031323334353637383941424344454669
:1015E00004080248656C6C6F2066726F6D2043685A
:1015F000697077686973706572657265722C2049CD
:101600006D206F6E6C79206865726520746F20673D
:10161000657420656E6372797074656420616E64B0
:0416200020796F00BE
:04162400F1010008C8
:04162800C9010008EC
:040000050800154D8D
:00000001FF
