:020000040800F2
:1000000000100020AD160008F5160008F5160008CF
:10001000F5160008F5160008F516000800000000A7
:10002000000000000000000000000000F5160008BD
:10003000F516000800000000F5160008F516000887
:1000400000000000000000000000000000000000B0
:1000500000000000000000000000000000000000A0
:100060000000000000000000000000000000000090
:100070000000000000000000000000000000000080
:100080000000000000000000000000000000000070
:100090000000000000000000000000000000000060
:1000A0000000000000000000000000000000000050
:1000B0000000000000000000000000000000000040
:1000C0000000000000000000000000000000000030
:1000D0000000000000000000000000000000000020
:1000E0000000000000000000000000000000000010
:1000F0000000000000000000000000000000000000
:1001000000000000000000000000000000000000EF
:1001100000000000000000000000000000000000DF
:1001200000000000000000000000000000000000CF
:1001300000000000000000000000000000000000BF
:1001400000000000000000000000000000000000AF
:10015000000000000000000000000000000000009F
:10016000000000000000000000000000000000008F
:10017000000000000000000000000000000000007F
:08018000000000000000000077
:100188000448054B10B5834203D0044B002B00D024
:10019800984710BD04000020040000200000000063
:1001A80006480749091A8B10C90FC91810B5491014
:1001B80003D0044B002B00D0984710BD040000204A
:1001C800040000200000000010B5074C2378002B25
:1001D80009D1FFF7D5FF054B002B02D0044800E0FA
:1001E80000BF0123237010BD0400002000000000A0
:1001F800F8160008054B10B5002B03D00449054834
:1002080000E000BFFFF7CCFF10BDC04600000000B3
:1002180008000020F816000802B471464908490091
:10022800095649008E4402BC7047C04602B4714664
:1002380049084900095C49008E4402BC7047C04621
:10024800002243088B4274D303098B425FD3030A0D
:100258008B4244D3030B8B4228D3030C8B420DD320
:10026800FF22090212BA030C8B4202D312120902AE
:1002780065D0030B8B4219D300E0090AC30B8B42EC
:1002880001D3CB03C01A5241830B8B4201D38B039A
:10029800C01A5241430B8B4201D34B03C01A52413F
:1002A800030B8B4201D30B03C01A5241C30A8B4282
:1002B80001D3CB02C01A5241830A8B4201D38B026D
:1002C800C01A5241430A8B4201D34B02C01A524111
:1002D800030A8B4201D30B02C01A5241CDD2C30983
:1002E8008B4201D3CB01C01A524183098B4201D3FF
:1002F8008B01C01A524143098B4201D34B01C01AEA
:10030800524103098B4201D30B01C01A5241C30861
:100318008B4201D3CB00C01A524183088B4201D3D0
:100328008B00C01A524143088B4201D34B00C01ABC
:100338005241411A00D20146524110467047FFE728
:1003480001B5002000F006F802BDC0460029F7D02C
:1003580076E770477047C04670B50C4D0C4E761B5B
:10036800B61005D0002408CD01349847A642FAD12A
:1003780001F0BEF9074D084E761BB61005D00024D3
:1003880008CD01349847A642FAD170BD84170008F9
:10039800841700088417000888170008F0B5C646B7
:1003A80000B50F2A41D903270D003E0005430C0074
:1003B80003002E402F423DD11500103D2D09A846BF
:1003C8002D01AC46844427681D001F6067685F6084
:1003D800A7689F60E7681034DF6010336545F2D185
:1003E80045460F230C2401352D01491913404519A1
:1003F800144222D08C59AC5104369C1B032CF9D8DA
:10040800043B9B0801339B00ED18C91803231A40CD
:10041800561E002A06D00023CC5C1A00EC54013387
:100428009642F9D180BCB846F0BD0500561E002A98
:10043800F1D1F7E70500561EEDE71A00F6E7C046CA
:100448008900920070B582184618346811689B00BC
:100458006418049934608D0045192968C0184C4007
:100468001021CC412C600168611801601368594063
:100478001423D94111603368C91831602B68594079
:100488001823D94129600368C918016013685940C5
:100498001923D941116070BD00234118884200D149
:1004A800704703700130F9E7F0B595B00391040087
:1004B8000100402204A8FFF771FF0A250C230D262E
:1004C80004220021009304A8043BFFF7B9FF092385
:1004D8000522012104A80096FFF7B2FF0E220F277C
:1004E8000A230221009204A8083AFFF7A9FF0B2368
:1004F8000722032104A80097FFF7A2FF0A23052279
:10050800002104A80097FFF79BFF0C230622012176
:10051800009304A8013BFFF793FF08230722022159
:1005280004A80096FFF78CFF0E22092300920321EE
:100538000A3A04A8013DFFF783FF002DBED1049BB2
:10054800226804A99B1804936268059B9B1805936D
:10055800A268069B9B180693E268079B9B18079363
:100568002269089B9B1808936269099B9B18099349
:10057800A2690A9B9B180A93E2690B9B9B180B9331
:10058800226A0C9B9B180C93626A0D9B9B180D9317
:10059800A26A0E9B9B180E930F9BE26A03989B1806
:1005A8000F93226B109B9B181093626B119B9B18E7
:1005B8001193A26B129B9B181293E26B139B9B18CF
:1005C80040221393FFF7EAFE402104A8FFF764FFD7
:1005D80015B0F0BD10B504004021FFF75DFF200005
:1005E80040214030FFF758FF40230434E36710BD33
:1005F800304B0A780360304B4360304B8360304B9C
:10060800C3604B781B0213438A7812041A43CB78D1
:100618001B06134303614B790A791B0213438A793A
:1006280012041A43CB791B06134343614B7A0A7AA7
:100638001B0213438A7A12041A43CB7A1B0613430C
:1006480083614B7B0A7B1B0213438A7B12041A4388
:10065800CB7B1B061343C3614B7C0A7C1B021343F1
:100668008A7C12041A43CB7C1B06134303624B7D1E
:100678000A7D1B0213438A7D12041A43CB7D1B0695
:10068800134343624B7E0A7E1B0213438A7E120485
:100698001A43CB7E1B06134383624B7F0A7F1B02E0
:1006A80013438A7F12041A43CB7F1B061343C3628A
:1006B80000207047657870616E642033322D62794E
:1006C8007465206B4B7810B502630A781B021343DC
:1006D8008A78040012041A43CB7804341B061343A7
:1006E80043634B790A791B0213438A7912041A432C
:1006F800CB791B06134383634B7A0A7A1B02134395
:100708008A7A12041A43CB7A40211B061343C36327
:100718004030FFF7C1FE40230020E36710BDF0B56D
:100728000500002485B001920293021D8C4233D14A
:1007380000263F2332009A4313190393039B9C42DC
:100748002FD13F2337001F401E4215D02900280013
:100758004031FFF7A9FE2B6B2A1B01332B63391994
:1007680040320198135D005D4340029803550134FF
:100778008C42F6D10435EF67002005B0F0BD019832
:10078800EB184033005D1B78434002980355D36F44
:1007980001340133D367C9E7D36F3F2BEFD90E1B61
:1007A800C7E72F00403739002800FFF77DFE2200F9
:1007B8002B6B3F1B01332B63403201993B5D095D75
:1007C8004B4002990B5501349442F6D1B6E7F0B587
:1007D8000400A3B001A80E0017001D00FFF7FAFEE1
:1007E800210001A8FFF704FF041E0DD13A003100D3
:1007F80001A8FFF767FF041E06D12900299B289A44
:1008080001A8FFF78CFF040001A88421FFF744FE2C
:10081800200023B0F0BD0000F0B50400AFB0012007
:1008280010293CD120221F4906A8FFF7B7FD2379DC
:1008380003AD2B70637962786B70A3791202AB7089
:10084800E3791EAEEB70237A17492B71637A0EAFEA
:100858006B71A37A3000AB71E37AEB71237B2B7257
:10086800637B6B72A37BAB72E37BEB7223781A43D7
:10087800A378E4781B04134324061C434022FFF7A3
:100888008DFD4023220029000197009606A8FFF756
:100898009EFF72203A00402100F08EF800202FB011
:1008A800F0BDC046101700084317000810B500F047
:1008B8003DF900F067F900F0A5F900F065F810219E
:1008C8007020034A00F05AF800F0C8F8FCE7C04668
:1008D800210800080120704770B51400A31A984237
:1008E80001DC00201FE04D780B782E00303EF6B278
:1008F800092E0CD826701D00303DEEB2092E15D8F1
:1009080023782D011D43257001340231E6E72E00BE
:10091800413E052E02D8373D2570ECE72E00613E9A
:10092800052E01D9012070BD573DF5E71D00413D59
:10093800052D05D8373B25781B012B432370E3E7AA
:100948001D00613D052DEDD8573BF4E7F0B5094F83
:1009580006003D6801200F2D0BDCFF2909D8064C45
:100968002801065520184160826003730020013574
:100978003D60F0BD200000202400002010B50023B9
:10098800FFF7E4FF10BD000010B50021074A7620EC
:10099800FFF7F4FF0021064A7720FFF7EFFF002159
:1009A8007920044AFFF7EAFF10BDC046DD080008B9
:1009B800150A0008F9090008F8B50D0014000F27FA
:1009C80000F078F96519AC4203D10A2000F072F9F9
:1009D800F8BD2378054E1B09F05C00F06BF923780D
:1009E80001343B40F05C00F065F9ECE73017000893
:1009F80007B56B46DA1D044B72201B680121137082
:100A0800FFF7DAFF00200EBD200000200322114B63
:100A1800944618680023F0B50F4C8DB0C6B2B342A7
:100A280009DB614641436A467220C9B2FFF7C4FF39
:100A380000200DB0F0BD654669465D431A01175D9B
:100A4800A2184F555768127B6D4401336F70AA7016
:100A5800DBB2E4E72000002024000020F0B50025E8
:100A68002F4CA54400F00EF92E4B2F491A68AA42C4
:100A780045DC40D001272C4C2D016619337B3B42C5
:100A88001AD000236A46137200F0FCF884226B46E1
:100A980052009B18187000F0F5F80A226B46FF32D6
:100AA8009B18187002AA380042A9FFF715FF002802
:100AB80021D16B461B7A7360002663195B685B0063
:100AC800B34222D800F0DEF80A2801D00D2812D14E
:100AD8006419656802AA280042A9FFF7FDFE0028EC
:100AE80009D1E9B2A36802A8984701AA10700121A8
:100AF8007A20FFF761FFC3239B009D44F0BD2C01C2
:100B08000C5D8442B6D00135B1E700F0BBF80A2885
:100B1800F1D00D28EFD042ABF0540136CDE7C046F6
:100B2800F4FCFFFF2000002024000020F0B59027EF
:100B3800002401250326042397B0FF05380005A9E2
:100B4800059306950794089600F032FB102305A933
:100B58003800059306950794089600F029FB0523AD
:100B68000AA80B930A960D94139400F0B9F807237A
:100B7800210001A8019302950394049400F08EFAD1
:100B880017B0F0BD802270B51B4C9202636988B023
:100B9800134363616369902013400193019BC02351
:100BA800DB00012503260393022303A9C005049350
:100BB80005950795069600F0FBFA8022A369D201F5
:100BC8001343A361A3690D4813400293029B236B4F
:100BD800B3431D430A4B2563036096231B024360FE
:100BE80000238360C360036183610C33436100F0B9
:100BF8004BFC08B070BDC046001002402401002024
:100C08000038014080211E4BF0B55A6989020A4319
:100C18005A615B6987B00B40902400930125002638
:100C28000327009B8023E405200001A90193029576
:100C38000396049700F0BCFA1023200001A9019341
:100C480002950396049700F0B3FA0423200001A943
:100C5800019302950396049700F0AAFA3200200047
:100C6800802100F059FB2A002000102100F054FBDD
:100C78002A000421200000F04FFB07B0F0BDC04659
:100C88000010024037B508246B46DD1D01223223CF
:100C98002900064800F02AFC002801D128783EBD2A
:100CA800034A136A23431362EEE7C0462401002077
:100CB8000038014007B56B46D91D0870012202486B
:100CC800024B00F089FC07BD2401002088130000B6
:100CD800024B1868421C1A607047C04694010020F5
:100CE800F0B50368040085B0DB072FD423689B07A1
:100CF80000D581E023681B0700D5BCE023685B07AB
:100D080000D5DFE02368DB061AD562690423B44DF9
:100D1800012A00D048E1696B02270B436B636B6BB8
:100D28001A436A63FFF7D4FF06006B6B3B4200D19E
:100D380033E1F8216A6BA3698A43DB0013436B63D1
:100D4800216A002900D057E100202AE00C22A44D96
:100D58006B681340042B06D06B681340082B0AD12C
:100D68006B68DB0307D52B689B03BFD56368002B33
:100D7800BCD1012015E06368012B14D180232A68B7
:100D88005B0213432B60FFF7A3FF80270600BF0217
:100D98002B683B42AAD1FFF79BFF801B6428F7D939
:100DA800032005B0F0BD002B16D12B688D4A802793
:100DB80013402B602B688C4ABF0213402B60FFF74F
:100DC80087FF06002B683B4200D18FE7FFF780FFC3
:100DD800801B6428F6D9E3E7052B05D180232A6810
:100DE800DB0213432B60C9E72B687E4A13402B6054
:100DF8002B687D4A1340C5E70C22794D6B68134276
:100E080006D06B681340082B10D16B68DB030DD438
:100E18002B689B0702D5E368012BAAD1F8212A6821
:100E280023698A43DB0013432B6063E7E2680123ED
:100E3800002A0FD02A68022713432B60FFF748FFC8
:100E480006002B683B42E9D1FFF742FF801B0228CE
:100E5800F7D9A5E72A6802279A432A60FFF738FFDF
:100E680006002B683B4200D144E7FFF731FF801BA7
:100E78000228F6D994E7E2690123594D002A10D0D7
:100E88006A6A022713436B62FFF722FF06006B6A48
:100E98003B4200D032E7FFF71BFF801B0228F6D940
:100EA8007EE76A6A02279A436A62FFF711FF060023
:100EB8006B6A3B4200D121E7FFF70AFF801B02283B
:100EC800F6D96DE780220021454D5205EB69009166
:100ED800134208D1EB691343EB61EB6913400393A9
:100EE800039B012300938027404E7F0033683B42D9
:100EF80015D0A368012B22D12A6A13432B62FFF76E
:100F0800E7FE022706002B6A3B423FD0009B012BDD
:100F180000D0F7E6EB69364A1340EB61F2E6336836
:100F28003B433360FFF7D4FE019033683B42E0D186
:100F3800FFF7CEFE019BC01A6428F6D930E70122DC
:100F4800002B14D12B6A022793432B622B6A03329E
:100F580093432B62FFF7BCFE06002B6A3B42D5D0B9
:100F6800FFF7B6FE234B801B9842F6D918E7052BEE
:100F780005D1296A013B0B432B622B6ABDE72B6A1B
:100F8800934304222B622B6A9343B7E7FFF7A0FE33
:100F9800184B801B9842B6D902E7FFF799FE801BD1
:100FA800022800D8C1E6FBE6053203D16A6B9A43F2
:100FB8006A63BEE66A6B0227134301226B636B6B9D
:100FC80093436B63FFF784FE06006B6B3B4200D1D3
:100FD800B6E6FFF77DFE801B0228F6D9E0E6C0469C
:100FE80000100240FFFFFEFFFFFFFBFF0070004004
:100FF800FFFFFFEF881300000C22254D6B6813409C
:10100800082B00D1B5E62B68224A13402B60022931
:101018002FD1FFF75DFE80270600BF042B683B42F7
:1010280021D10F22EB6A80269343E26AB604134368
:10103800EB62616AA36A6A680B4317490A40134363
:101048006B6080232A685B0413432B60FFF740FE24
:1010580004002B68334200D076E6FFF739FE001B08
:101068000228F6D99CE6FFF733FE801B0228D5D963
:1010780096E6FFF72DFE80260400B6042B6833425F
:1010880000D161E6FFF724FE001B0228F6D987E6A7
:1010980000100240FFFFFFFEFFFFC2FFF7B501226D
:1010A8003E4D04002B680F0013408B4212D3226878
:1010B800930719D4D2071FD401232A681A40BA42C9
:1010C8005DD823685B0761D4E122354BD203002049
:1010D8001A6008E02B6893430B432B602B6813407E
:1010E8008B42E4D00120FEBDF0202E494B6883439B
:1010F800A06803434B60DDE72A4E62683368012A23
:101108001AD19B03EED5032173688B431343736095
:10111800FFF7DEFD63680190012B15D10C2273687F
:101128001340042BC8D0FFF7D3FD019BC01A1E4BF8
:101138009842F3D90320D6E7022A02D19B01E2D4D0
:10114800D0E79B07DFD4CDE7022B12D00C227368BF
:101158001342B1D0FFF7BCFD019BC01A124B984255
:10116800F4D9E7E7FFF7B4FD019BC01A0E4B98428C
:10117800E0D80C2273681340082BF3D19CE72A6847
:101188009A432A602A681A429BD0ABE7054A074966
:1011980053680B40E1680B43536095E70020024019
:1011A800000000200010024088130000FFF8FFFF35
:1011B8000023F0B587B00A681400DC4001D107B0FD
:1011C800F0BD012614009E4034400294324200D102
:1011D80094E04A6815000192102295430395022D68
:1011E8000FD107240F251C40A400A540DA0892005F
:1011F8008218176AAF43BC460F69A7406446274365
:10120800176203225C00A240D543AC460325076859
:101218009743019A2A40A240039D3A43013D026048
:10122800012D0FD8624685681540CA68A2402A4336
:1012380082604568019AB5430126120932409A40F6
:101248002A4342606246C56815408A68A2408024E5
:101258002A43C260019A640522424FD00125284AD8
:1012680090279469FF052C43946192699C082A4051
:101278000592059A234AA400A4180F2202351D409E
:10128800AD00AA40A66896430022B8420CD01E4F73
:101298000132B84208D01D4F0132B84204D01C4F69
:1012A8000332B84200D1023AAA403243A260194A36
:1012B800029C1668029D019FE4433543FF0301D455
:1012C8003500254015605668029D019F3543BF03D0
:1012D80001D43500254055609668029D019F35432D
:1012E800FF0201D4350025409560D568029E019F14
:1012F8002E43BF0201D425402E00D66001335AE7A1
:1013080000100240000001400004004800080048A6
:10131800000C004800040140002A01D08161704798
:101328008162FCE7F7B504000E00170001932568F9
:10133800EB6933409B1B5A425341BB4201D000200A
:1013480017E0089B0133F3D0089B002B12D12B68C0
:101358000C4A032013402B60AB68A332FF3293433F
:101368002200AB6020236932137053700023683465
:101378002370FEBDFFF7ACFC019BC01A089B984286
:10138800D5D9E4E75FFEFFFF030070B59A681D69D1
:1013980004682A435D69C1692A432068334D0A43BA
:1013A800284002432260626831481D6A0240D868BA
:1013B800024362609A69A0682A432E4D284002437E
:1013C80003208025A2602C4A2D02126B0240013AAC
:1013D800022A06D9A9423CD15968E12348081B04CE
:1013E8000FE02648805CA94220D108281BD8FEF7C8
:1013F80013FFF31A051AF31A1A1A15005968204B25
:101408004808C018FEF71CFF83B2002019000F22FD
:101418001B0791435B0F0B43E36070BD5968802342
:1014280048085B02EDE701200023EFE708281AD8F7
:10143800FEF7FCFE0F1905190F1919191400596840
:10144800104B4808C018FEF7FBFE80B2E060002091
:10145800E3E75968E1234808DB03F3E75968802389
:1014680048081B02EEE70120D7E7C046F369FFFFF3
:10147800FFCFFFFFFFF4FFFF0010024040170008F6
:101488000048E8010024F400F8B5041E01D1012049
:10149800F8BD060069363378DAB2002B02D10300B2
:1014A80068331A70242301273370256820002B68BD
:1014B800BB432B60FFF768FFB842E8D06B680A4A65
:1014C8000020134008226B60AB689343AB602B6825
:1014D80022001F4320232F606A32E066683433708D
:1014E80013702070D4E7C046FFF7FFFFF0B585B052
:1014F800039303006A3316001A7804000D000220D3
:10150800202A3BD10138002938D0002E36D080223D
:10151800A1685201914204D12269002A01D10542F1
:101528002CD12200683211780220012926D001210D
:1015380011700022E26622321A70FFF7C9FB2300FD
:101548008021A26858331E805E80029049010433CE
:101558008A4217D12269002A12D11E4A1A8080278E
:101568001E887F0122005A32138898B2002B10D1AE
:10157800230020226A3368341A70207005B0F0BD49
:10158800FF22EBE7002AEAD12269002AF8D07F225D
:10159800E4E713882021013B9BB21380039B0022C0
:1015A80000932000029BFFF7BDFE002810D1A2681F
:1015B8002368BA4207D12269002A04D19B8C3340A0
:1015C8002B800235CEE79B8C33402B700135C9E761
:1015D8000320D3E7FF010000F0B5070085B00393AF
:1015E80069373B7804000D0016000220202B46D1F5
:1015F8000138002943D0002A41D08023A2685B012A
:101608009A4204D12369002B01D1014237D123002A
:1016180068331A780220012A31D001221A70002377
:10162800E36621333B70FFF753FB230050331E80E2
:101638005E80802602907601210052310B889AB292
:10164800002B0DD1039B402100932000029BFFF744
:1016580069FE002812D1202368343B7020700EE008
:101668000B880022013B9BB20B80039B80210093D7
:101678002000029BFFF756FE002802D0032005B089
:10168800F0BDA3682268B34208D12369002B05D1B5
:101698002B880235DB05DB0D1385CDE72B7801356B
:1016A8001385C9E7002103E00B4B5B584350043115
:1016B8000A480B4B42189A42F6D30A4A02E0002322
:1016C80013600432084B9A42F9D300E000BFFEF7DA
:1016D80043FEFFF7EBF8FEE78C1700080000002038
:1016E800040000200400002098010020FEE700000C
:1016F800F8B5C046F8BC08BC9E467047F8B5C04669
:08170800F8BC08BC9E467047C6
:10171000000102030405060708090A0B0C0D0E0F51
:10172000101112131415161718191A1B1C1D1E1F41
:101730003031323334353637383941424344454607
:1017400004080248656C6C6F2066726F6D204368F8
:10175000697077686973706572657265722C20496B
:101760006D206F6E6C79206865726520746F2067DC
:10177000657420656E6372797074656420616E644F
:0417800020796F005D
:04178400FD0100085B
:04178800D101000883
:04178C0000127A00CD
:04000005080016AD2C
:00000001FF
